:100000000C942A000C94492D0C94782D0C944700E4
:100010000C9447000C9447000C9447000C94170E66
:100020000C9447000C9447000C9447000C94470034
:100030000C9447000C9447000C9447000C94470024
:100040000C9447000C9447000C9447000C94470014
:100050000C94470011241FBECFE5D8E0DEBFCDBF12
:1000600012E0A0E6B0E0E8E4F1E602C005900D92EF
:10007000A63AB107D9F717E0A6EAB2E001C01D928F
:10008000A534B107E1F70E9473240C94A2300C94BC
:100090000000EF92FF920F931F937B018C0120E0F1
:1000A00030E040E05FE40E94490388238CF0C801FF
:1000B000B70120E030E040E05FE40E94C1010E940F
:1000C00007049B01AC01205030404040504806C01E
:1000D000C801B7010E9407049B01AC01B901CA0124
:1000E0001F910F91FF90EF900895A0E0B0E0EBE733
:1000F000F0E00C94FE2FDC012B01FA019C91923070
:1001000008F439C1EB018881823008F433C194309E
:1001100069F4843009F02FC111969C91119789815F
:10012000981709F428C1A3E1B1E025C1843009F48E
:1001300021C18230A9F4923009F01DC19A01AD01AC
:1001400088E0EA010990AE01E90109929E0181501F
:10015000C1F7E201898111969C918923818308C1AD
:10016000923009F407C112962D903C901397EB0141
:100170008A819B811496AD90BD90CD90DC901797AD
:10018000EC80FD800E811F819101281B390BB90184
:1001900037FF04C066277727621B730B6032710537
:1001A0000CF061C0121613066CF537014801062EDB
:1001B00004C096948794779467940A94D2F721E0C8
:1001C00030E040E050E004C0220F331F441F551FB1
:1001D0006A95D2F721503040404050402E213F21B7
:1001E00040235123211531054105510521F021E01E
:1001F00030E040E050E079018A01E628F72808293C
:1002000019293CC0232BD1F1260E371E350146019A
:10021000062E04C096948794779467940A94D2F734
:1002200021E030E040E050E004C0220F331F441FC3
:10023000551F6A95D2F721503040404050402A2146
:100240003B214C215D21211531054105510521F04E
:1002500021E030E040E050E059016A01A628B728CB
:10026000C828D9280BC0821593052CF01C01AA249C
:10027000BB24650103C0EE24FF24870111969C91E5
:10028000D20111968C91981709F445C0992339F041
:10029000A80197012A193B094C095D0906C0A6016E
:1002A00095012E193F09400B510B57FD08C01182D3
:1002B0003382228224833583468357831DC081E0A5
:1002C00081833382228288279927DC01821B930B4A
:1002D000A40BB50B84839583A683B7830DC0220F2F
:1002E000331F441F551F24833583468357838281E0
:1002F000938101979383828324813581468157813D
:10030000DA01C9010197A109B1098F5F9F4FAF4F72
:10031000BF4328F30BC0918333822282EA0CFB1C7B
:100320000C1D1D1DE482F5820683178383E0808304
:10033000248135814681578157FF1AC0C901AA27F8
:1003400097FDA095BA2F81709070A070B0705695EF
:10035000479537952795822B932BA42BB52B848318
:100360009583A683B7838281938101969383828349
:10037000DF0101C0D201CD01CDB7DEB7E2E10C94BF
:100380001A30A0E2B0E0E7ECF1E00C940A306983A7
:100390007A838B839C832D833E834F835887E9E048
:1003A000EE2EF12CEC0EFD1ECE010196B7010E943F
:1003B000F8058E010F5E1F4FCE010596B8010E9411
:1003C000F8058A8991E089278A8BC701B801AE01B7
:1003D000475E5F4F0E9475000E942305A096E6E0ED
:1003E0000C942630A0E2B0E0E8EFF1E00C940A3083
:1003F00069837A838B839C832D833E834F835887C5
:10040000F9E0EF2EF12CEC0EFD1ECE010196B701A6
:100410000E94F8058E010F5E1F4FCE010596B801B0
:100420000E94F805C701B801AE01475E5F4F0E9408
:1004300075000E942305A096E6E00C942630A0E209
:10044000B0E0E5E2F2E00C94FE2F69837A838B83BF
:100450009C832D833E834F835887CE010196BE0136
:10046000675F7F4F0E94F805CE010596BE016F5E63
:100470007F4F0E94F8059985923088F089898230F3
:10048000C8F0943019F4823051F404C0843029F457
:10049000923081F483E191E0C6C0923049F420E0CB
:1004A0009A858A89981321E02A87CE010996BBC0D4
:1004B000823049F420E09A858A89981321E02A8BBA
:1004C000CE014196B0C02D843E844F8458886D88FB
:1004D0007E888F88988CEE24FF248701AA24BB2471
:1004E000650140E050E060E070E0E0E0F0E0C10174
:1004F00081709070892BE9F0E60CF71C081D191D1E
:100500009A01AB012A0D3B1D4C1D5D1D80E090E062
:10051000A0E0B0E0E614F7040805190520F481E036
:1005200090E0A0E0B0E0BA01A901480F591F6A1F8E
:100530007B1FAA0CBB1CCC1CDD1C97FE08C081E0F5
:1005400090E0A0E0B0E0A82AB92ACA2ADB2A3196B6
:10055000E032F10549F0660C771C881C991C569412
:10056000479437942794C3CFFA85EA892B893C892D
:100570008B859C85280F391F2E5F3F4F17C0CA01FE
:1005800081709070892B61F016950795F794E79428
:1005900080E090E0A0E0B0E8E82AF92A0A2B1B2BC3
:1005A00076956795579547952F5F3F4F77FDE7CF36
:1005B0000CC0440F551F661F771F17FD4160EE0CDE
:1005C000FF1C001F111F21503040403090E05907A0
:1005D00090E0690790E4790760F32B8F3C8FDB0193
:1005E000CA018F779070A070B07080349105A1051A
:1005F000B10561F447FD0AC0E114F10401051105DC
:1006000029F0405C5F4F6F4F7F4F40781A8EFE1786
:1006100011F081E08A8F4D8F5E8F6F8F78A383E01A
:10062000898FCE0149960E942305A096E2E10C94A1
:100630001A30A8E1B0E0EFE1F3E00C940A306983EE
:100640007A838B839C832D833E834F83588789E0F5
:10065000E82EF12CEC0EFD1ECE010196B7010E9492
:10066000F8058E010F5E1F4FCE010596B8010E945E
:10067000F8058985823040F08989823028F0C701E9
:10068000B8010E94700601C08FEF6896E6E00C94F6
:100690002630A8E1B0E0EFE4F3E00C940A3069837F
:1006A0007A838B839C832D833E834F83588789E095
:1006B000E82EF12CEC0EFD1ECE010196B7010E9432
:1006C000F8058E010F5E1F4FCE010596B8010E94FE
:1006D000F8058985823040F08989823028F0C70189
:1006E000B8010E94700601C08FEF6896E6E00C9496
:1006F0002630A8E1B0E0EFE7F3E00C940A3069831C
:100700007A838B839C832D833E834F83588789E034
:10071000E82EF12CEC0EFD1ECE010196B7010E94D1
:10072000F8058E010F5E1F4FCE010596B8010E949D
:10073000F8058985823040F08989823028F0C70128
:10074000B8010E94700601C081E06896E6E00C9452
:100750002630A8E0B0E0EFEAF3E00C9407309B010C
:10076000AC0183E08983DA01C9018827B7FD83954D
:100770009927AA27BB27B82E211531054105510518
:1007800019F482E089833AC08823A9F0203080E000
:10079000380780E0480780E8580729F460E070E0F7
:1007A00080E09FEC30C0EE24FF248701E21AF30AB8
:1007B000040B150B02C079018A018EE1C82ED12CE1
:1007C000DC82CB82ED82FE820F831887C801B701DD
:1007D0000E94D40401971816190684F4082E04C048
:1007E000EE0CFF1C001F111F0A94D2F7ED82FE824F
:1007F0000F831887C81AD90ADC82CB82BA82CE014D
:1008000001960E9423052896E9E00C942330ACE081
:10081000B0E0EDE0F4E00C940E3069837A838B83D2
:100820009C83CE010196BE016B5F7F4F0E94F8054D
:100830008D81823061F1823050F1843021F48E81DB
:10084000882351F12EC02F81388537FD20C06E815D
:100850002F3131051CF06623F9F023C08EE190E0C2
:10086000821B930B29853A854B855C8504C0569580
:100870004795379527958A95D2F76623B1F050951D
:100880004095309521953F4F4F4F5F4F0EC020E070
:1008900030E040E050E009C02FEF3FEF4FEF5FE75F
:1008A00004C020E030E040E050E8B901CA012C96D5
:1008B000E2E00C942A30A8E0B0E0E1E6F4E00C9429
:1008C00006307B018C01611571058105910519F4D4
:1008D00082E0898360C083E089838EE1C82ED12CB9
:1008E000DC82CB82ED82FE820F831887C801B701BC
:1008F0000E94D404FC013197F7FF3BC02227332725
:100900002E1B3F0B57016801022E04C0D694C794DA
:10091000B794A7940A94D2F740E050E060E070E00A
:1009200081E090E0A0E0B0E004C0880F991FAA1F0A
:10093000BB1F2A95D2F70197A109B1098E219F21EA
:10094000A023B1230097A105B10521F041E050E0BB
:1009500060E070E04A295B296C297D294D835E8324
:100960006F8378878EE190E08E1B9F0B9C838B8337
:1009700012C0309781F00E2E04C0EE0CFF1C001F39
:10098000111F0A94D2F7ED82FE820F831887CE1AC8
:10099000DF0ADC82CB821A82CE0101960E942305F7
:1009A0002896EAE00C942230EF92FF920F931F9367
:1009B0007B018C0180E0E81680E0F80681E0080702
:1009C00080E0180788F48FEFE816F104010511059F
:1009D00031F028F088E090E0A0E0B0E017C080E0BF
:1009E00090E0A0E0B0E012C080E0E81680E0F806F9
:1009F00080E0080781E0180728F088E190E0A0E097
:100A0000B0E004C080E190E0A0E0B0E020E230E09F
:100A100040E050E0281B390B4A0B5B0B04C01695D5
:100A20000795F794E7948A95D2F7F701E55EFE4FB4
:100A30008081281B310941095109C9011F910F917A
:100A4000FF90EF900895DF92EF92FF920F931F9324
:100A5000FC01E480F58006811781D180808182309D
:100A600048F480E090E0A0E1B0E0E82AF92A0A2BFF
:100A70001B2BA5C0843009F49FC0823021F4EE24E2
:100A8000FF24870105C0E114F1040105110519F4E3
:100A9000E0E0F0E096C0628173819FEF62387907F1
:100AA0000CF05BC022E83FEF261B370B2A313105E3
:100AB0002CF020E030E040E050E02AC0B801A7016F
:100AC000022E04C076956795579547950A94D2F7FC
:100AD00081E090E0A0E0B0E004C0880F991FAA1F59
:100AE000BB1F2A95D2F70197A109B1098E219F2139
:100AF000A023B1230097A105B10521F081E090E08A
:100B0000A0E0B0E09A01AB01282B392B4A2B5B2BDC
:100B1000DA01C9018F779070A070B07080349105B0
:100B2000A105B10539F427FF09C0205C3F4F4F4FA5
:100B30005F4F04C0215C3F4F4F4F5F4FE0E0F0E05C
:100B40002030A0E03A07A0E04A07A0E45A0710F0DE
:100B5000E1E0F0E079018A0127C06038710564F5B1
:100B6000FB01E158FF4FD801C7018F779070A0704B
:100B7000B07080349105A105B10539F4E7FE0DC0D0
:100B800080E490E0A0E0B0E004C08FE390E0A0E05B
:100B9000B0E0E80EF91E0A1F1B1F17FF05C01695CF
:100BA0000795F794E794319687E016950795F794A3
:100BB000E7948A95D1F705C0EE24FF248701EFEF73
:100BC000F0E06E2F679566276795902F9F77D794F3
:100BD000DD24D7948E2F8695492F462B582F5D29DB
:100BE000B701CA011F910F91FF90EF90DF90089518
:100BF000FC01DB01408151812281622F6F7770E01F
:100C0000221F2227221F9381892F880F822B282FB2
:100C100030E0991F9927991F11969C9311972115E0
:100C20003105A9F5411551056105710511F482E001
:100C300037C082E89FEF13969C938E9312979A0188
:100C4000AB0167E0220F331F441F551F6A95D1F790
:100C500083E08C930DC0220F331F441F551F129643
:100C60008D919C911397019713969C938E93129755
:100C7000203080E0380780E0480780E4580758F3C8
:100C800014962D933D934D935C93179708952F3FA2
:100C9000310579F4411551056105710519F484E0B8
:100CA0008C93089564FF03C081E08C9312C01C9262
:100CB00010C02F57304013963C932E93129783E029
:100CC0008C9387E0440F551F661F771F8A95D1F7D5
:100CD000706414964D935D936D937C93179708956C
:100CE0001F93DC01FB019C91923008F447C0808186
:100CF000823008F443C0943051F411961C91843032
:100D000099F58181682F70E0611B71093FC08430C3
:100D100021F0923031F48230B9F18181882389F158
:100D20002DC011961C9111978230F1F08181181716
:100D3000D9F412962D913C91139782819381821759
:100D4000930794F028173907BCF014968D919D9164
:100D50000D90BC91A02D24813581468157812817A3
:100D600039074A075B0718F4112341F00AC08217BC
:100D70009307A407B50740F4112319F061E070E070
:100D800005C06FEF7FEF02C060E070E0CB011F9104
:100D90000895DF93CF93CDB7DEB727970FB6F894BA
:100DA000DEBF0FBECDBF9D838C836E834F838AE1F0
:100DB00090E00E94A1099A83898389819A81009792
:100DC00009F46FC08091A6029091A702009741F4A8
:100DD00089819A819093A7028093A6020E9430098C
:100DE0008E81823010F081E08E83E981FA81118E4C
:100DF000108EE981FA818E81868BE981FA818F815B
:100E0000878BE981FA818C819D819183808389819F
:100E10009A8102960E94370A89819A810C960E94D3
:100E2000370AE981FA8189819A8191878087E981EE
:100E3000FA8189819A81938B828B8E81282F30E071
:100E400085E090E0821B930BE981FA819587848786
:100E5000E981FA8196898091A802891728F4E981AD
:100E6000FA8186898093A802E981FA818689282FF0
:100E700030E0C901880F991F880F991F880F991FAB
:100E8000820F931FAC0141555D4F89819A819C016E
:100E90002E5F3F4FCA01B9010E94470A81E08B8350
:100EA00002C08FEF8B838B8127960FB6F894DEBF3D
:100EB0000FBECDBFCF91DF910895DF93CF9300D0C8
:100EC00000D000D0CDB7DEB79C838B837E836D834B
:100ED0002091A9023091AA028B819C81820F931FDD
:100EE0009A8389838091A6029091A70202960E941C
:100EF000FF0AE091A602F091A70289819A8193836B
:100F000082832091A9023091AA0289819A81821755
:100F1000930770F48091D5029091D6022091A60299
:100F20003091A7022E5F3F4FB9010E94930A0DC076
:100F30008091D3029091D4022091A6023091A70211
:100F40002E5F3F4FB9010E94930A8D819E810097C9
:100F500061F08091A6029091A7029C01245F3F4F0F
:100F60008D819E81B9010E94930A26960FB6F8944E
:100F7000DEBF0FBECDBFCF91DF910895DF93CF933A
:100F800000D0CDB7DEB73AC0F894E091DC02F09122
:100F9000DD02868197819A83898389819A810C9663
:100FA0000E94FF0A789489819A8102960E94FF0A22
:100FB000E981FA8196898091A802891728F4E9814C
:100FC000FA8186898093A802E981FA818689282F8F
:100FD00030E0C901880F991F880F991F880F991F4A
:100FE000820F931FAC0141555D4F89819A819C010D
:100FF0002E5F3F4FCA01B9010E94470A8091D70274
:10100000882309F0C1CF0F900F90CF91DF91089501
:10101000DF93CF9300D000D0CDB7DEB70E946D151F
:101020002091AB023091AC02821B930B9093AE02E5
:101030008093AD0285C08091A9029091AA02019689
:101040009093AA028093A9028091AD029091AE0282
:1010500001979093AE028093AD028091A902909186
:10106000AA02009709F064C08091D3029091D40243
:101070009A8389838091D5029091D6029093D4026D
:101080008093D30289819A819093D6028093D5026E
:101090004FC0E091D302F091D4020580F681E02D9B
:1010A000868197819C838B83EB81FC8122813381B4
:1010B0008091A9029091AA028217930708F440C078
:1010C000F8948B819C8102960E94FF0AEB81FC813F
:1010D00084899589009729F08B819C810C960E94C8
:1010E000FF0A7894EB81FC8196898091A802891788
:1010F00028F4EB81FC8186898093A802EB81FC8136
:101100008689282F30E0C901880F991F880F991F01
:10111000880F991F820F931FAC0141555D4F8B8142
:101120009C819C012E5F3F4FCA01B9010E94470A72
:10113000E091D302F091D4028081882309F0A9CFF5
:101140008091AD029091AE02009709F074CF80912A
:10115000A9029091AA029093AC028093AB020F90E7
:101160000F900F900F90CF91DF910895DF93CF9361
:1011700000D0CDB7DEB70E94BE070E9408080AC0A3
:101180008091A802882309F466C08091A80281504A
:101190008093A8028091A802282F30E0C901880F0F
:1011A000991F880F991F880F991F820F931FFC01A9
:1011B000E155FD4F8081882319F38091A802282FE3
:1011C00030E0C901880F991F880F991F880F991F58
:1011D000820F931F81559D4F9A838983E981FA81FC
:1011E0000180F281E02D82819381E981FA819283ED
:1011F0008183E981FA812181328189819A810396F3
:101200002817390759F4E981FA810180F281E02D2C
:1012100082819381E981FA8192838183E981FA81D4
:101220000180F281E02D868197819093A7028093BF
:10123000A602E091A602F091A7024081518180911F
:10124000A6029091A702E091A602F091A702278939
:10125000622FFA0109950F900F90CF91DF910895B9
:10126000DF93CF930F92CDB7DEB7198213C0898178
:10127000282F30E0C901880F991F880F991F880F08
:10128000991F820F931F81559D4F0E940D0A8981DE
:101290008F5F89838981823050F381EC92E00E94D4
:1012A0000D0A8AEC92E00E940D0A87ED92E00E94FE
:1012B0000D0A81EC92E09093D4028093D3028AECE1
:1012C00092E09093D6028093D5020F90CF91DF9158
:1012D0000895DF93CF9300D000D00F92CDB7DEB743
:1012E0009D838C83EC81FD810580F681E02D8681D4
:1012F00097819B838A838A819B810C960E94FF0A37
:101300008A819B819C01245F3F4F87ED92E0B90168
:101310000E94470AEA81FB819689E091A602F0913A
:10132000A7028689981718F081E0898301C0198285
:1013300089810F900F900F900F900F90CF91DF91B8
:101340000895DF93CF9300D000D0CDB7DEB79C8354
:101350008B831A8219820E94D7148091E0029091A7
:10136000E1022B813C81820F931F23E0883E92078C
:1013700018F52091E0023091E1028B819C81280FC9
:10138000391F8091E0029091E10282179307A0F447
:101390008091E0029091E1028E519D4F9A83898362
:1013A0002091E0023091E1028B819C81820F931F9A
:1013B0009093E1028093E0020E94E31489819A8174
:1013C0000F900F900F900F90CF91DF910895DF93C2
:1013D000CF9300D0CDB7DEB79A8389830F900F905B
:1013E000CF91DF910895DF93CF93CDB7DEB7109201
:1013F000E1021092E002CF91DF910895DF93CF9345
:10140000CDB7DEB72091E0023091E10288EE93E0A3
:10141000821B930BCF91DF910895DF93CF9300D080
:10142000CDB7DEB79A83898389819A810396E98152
:10143000FA8192838183E981FA818FEF9FEF948310
:10144000838389819A810396E981FA8196838583D2
:1014500089819A810396E981FA8190878783E9815E
:10146000FA8110820F900F90CF91DF910895DF9352
:10147000CF9300D0CDB7DEB79A838983E981FA8113
:10148000118610860F900F90CF91DF910895DF9312
:10149000CF9300D000D000D0CDB7DEB79C838B8334
:1014A0007E836D83EB81FC81818192819A83898324
:1014B000E981FA8182819381ED81FE819383828328
:1014C000EB81FC8181819281ED81FE819583848312
:1014D000E981FA810280F381E02D8D819E819583DF
:1014E00084838D819E81E981FA81938382838D81BA
:1014F0009E81EB81FC8192838183ED81FE818B81D2
:101500009C8191878087EB81FC8180818F5FEB815B
:10151000FC81808326960FB6F894DEBF0FBECDBF48
:10152000CF91DF910895DF93CF93CDB7DEB72897A2
:101530000FB6F894DEBF0FBECDBF9E838D83788734
:101540006F83EF81F885808191819A838983898176
:101550009A812FEF8F3F920739F4ED81FE818781C9
:1015600090859C838B8318C08D819E8103969C837C
:101570008B8306C0EB81FC81828193819C838B836A
:10158000EB81FC810280F381E02D20813181898112
:101590009A818217930770F7EB81FC818281938196
:1015A000EF81F88593838283EF81F8850280F38150
:1015B000E02D8F81988595838483EF81F8858B81D9
:1015C0009C81958384838F819885EB81FC819383B3
:1015D0008283EF81F8858D819E8191878087ED815F
:1015E000FE8180818F5FED81FE81808328960FB61A
:1015F000F894DEBF0FBECDBFCF91DF910895DF938A
:10160000CF9300D000D0CDB7DEB79C838B83EB8126
:10161000FC81A281B381EB81FC8184819581159647
:101620009C938E931497EB81FC81A481B581EB810F
:10163000FC818281938113969C938E931297EB8108
:10164000FC81808591859A838983E981FA81218152
:1016500032818B819C812817390741F4EB81FC8111
:1016600084819581E981FA8192838183EB81FC8178
:1016700011861086E981FA8180818150E981FA81A1
:1016800080830F900F900F900F90CF91DF9108956E
:10169000DF93CF93CDB7DEB728970FB6F894DEBFB0
:1016A0000FBECDBF9C838B837E836D8358874F8312
:1016B000EB81FC8181E180838B819C8101979C83FC
:1016C0008B83EB81FC8182E280838B819C810197FB
:1016D0009C838B83EB81FC8183E380838B819C8162
:1016E00001979C838B838D819E819A8389838981D5
:1016F000EB81FC8180838B819C8101979C838B8310
:1017000089819A81892F99279A8389838981EB819D
:10171000FC8180838B819C8101979C838B83EB81EF
:10172000FC8110828B819C8101979C838B83EB8150
:10173000FC8180E880838B819C8101979C838B83D3
:10174000EB81FC8110828B819C8101979C838B8330
:10175000EB81FC8182E080838B819C8101979C835B
:101760008B83EB81FC8183E080838B819C8101975B
:101770009C838B83EB81FC8184E080838B819C81C3
:1017800001979C838B83EB81FC8185E080838B8137
:101790009C8101979C838B83EB81FC8186E0808315
:1017A0008B819C8101979C838B83EB81FC8187E0FB
:1017B00080838B819C8101979C838B83EB81FC814F
:1017C00088E080838B819C8101979C838B83EB8154
:1017D000FC8189E080838B819C8101979C838B8332
:1017E000EB81FC8180E180838B819C8101979C83CC
:1017F0008B83EB81FC8181E180838B819C810197CC
:101800009C838B83EB81FC8182E180838B819C8133
:1018100001979C838B83EB81FC8183E180838B81A7
:101820009C8101979C838B83EB81FC8184E1808385
:101830008B819C8101979C838B83EB81FC8185E16B
:1018400080838B819C8101979C838B83EB81FC81BE
:1018500086E180838B819C8101979C838B83EB81C4
:10186000FC8187E180838B819C8101979C838B83A2
:10187000EB81FC8188E180838B819C8101979C8333
:101880008B83EB81FC8189E180838B819C81019733
:101890009C838B83EB81FC8180E280838B819C81A4
:1018A00001979C838B83EB81FC8181E280838B8118
:1018B0009C8101979C838B83EB81FC8182E28083F6
:1018C0008B819C8101979C838B83EB81FC8183E2DC
:1018D00080838B819C8101979C838B838F819885EA
:1018E0009A8389838981EB81FC8180838B819C81B0
:1018F00001979C838B8389819A81892F99279A8369
:1019000089838981EB81FC8180838B819C81019714
:101910009C838B83EB81FC8186E280838B819C811D
:1019200001979C838B83EB81FC8187E280838B8191
:101930009C8101979C838B83EB81FC8188E280836F
:101940008B819C8101979C838B83EB81FC8189E255
:1019500080838B819C8101979C838B83EB81FC81AD
:1019600080E380838B819C8101979C838B83EB81B7
:10197000FC8181E380838B819C8101979C838B8395
:101980008B819C8128960FB6F894DEBF0FBECDBF29
:10199000CF91DF910895DF93CF93CDB7DEB70E944B
:1019A000BB0DA091CA06B091CB06CD91CDBFDD9104
:1019B000DEBFFF91EF91DF91CF91BF91AF919F91EA
:1019C0008F917F916F915F914F913F912F911F91D7
:1019D0000F91FF90EF90DF90CF90BF90AF909F90CE
:1019E0008F907F906F905F904F903F902F901F90BF
:1019F0000F900FBE0F90089581E0CF91DF91089571
:101A0000DF93CF93CDB7DEB7CF91DF9108950F92DB
:101A10000FB6F8940F921F9211242F923F924F927B
:101A20005F926F927F928F929F92AF92BF92CF926E
:101A3000DF92EF92FF920F931F932F933F934F9359
:101A40005F936F937F938F939F93AF93BF93CF9346
:101A5000DF93EF93FF93A091CA06B091CB060DB62A
:101A60000D920EB60D920E947716A091CA06B09103
:101A7000CB06CD91CDBFDD91DEBFFF91EF91DF9120
:101A8000CF91BF91AF919F918F917F916F915F9116
:101A90004F913F912F911F910F91FF90EF90DF9009
:101AA000CF90BF90AF909F908F907F906F905F90FE
:101AB0004F903F902F901F900F900FBE0F90089562
:101AC0000F920FB6F8940F921F9211242F923F920B
:101AD0004F925F926F927F928F929F92AF92BF923E
:101AE000CF92DF92EF92FF920F931F932F933F932A
:101AF0004F935F936F937F938F939F93AF93BF9316
:101B0000CF93DF93EF93FF93A091CA06B091CB06DA
:101B10000DB60D920EB60D920E94A2150E94771678
:101B2000A091CA06B091CB06CD91CDBFDD91DEBFAD
:101B3000FF91EF91DF91CF91BF91AF919F918F91E5
:101B40007F916F915F914F913F912F911F910F91D5
:101B5000FF90EF90DF90CF90BF90AF909F908F90CD
:101B60007F906F905F904F903F902F901F900F90BD
:101B70000FBE0F900895DF93CF9300D000D000D018
:101B8000CDB7DEB780E49FE1A0E0B0E08B839C831B
:101B9000AD83BE838B819C81AD81BE81689415F835
:101BA000B695A795979587951694D1F78B839C83C7
:101BB000AD83BE838B819C81AD81BE810197A109DC
:101BC000B1098B839C83AD83BE838B8189838B8199
:101BD0009C81AD81BE81892F9A2FAB2FBB278B8330
:101BE0009C83AD83BE838B818A83EBE4F0E08A81A2
:101BF0008083EAE4F0E0898180838BE08983EEE4EE
:101C0000F0E089818083E9E5F0E080818983898142
:101C100080618983E9E5F0E08981808326960FB6AB
:101C2000F894DEBF0FBECDBFCF91DF9108950E9423
:101C3000600D1895DF93CF93CDB7DEB728970FB619
:101C4000F894DEBF0FBECDBF8F8368871A821982DA
:101C50008F81882309F48CC08FE190E00E94A10954
:101C60009E838D838D819E81009709F481C08F8131
:101C7000282F30E08885882F90E0AC01249FC00198
:101C8000259F900D349F900D112401969C838B838A
:101C90008B819C810E94A109ED81FE8191838083CB
:101CA000ED81FE8180819181009709F45DC0ED8115
:101CB000FE81408151818F81282F30E08885882FD7
:101CC00090E0BC01269FC001279F900D369F900D8C
:101CD0001124840F951FED81FE8193838283ED8112
:101CE000FE81128EED81FE8180819181ED81FE81E8
:101CF00095838483ED81FE81408151818F81882F7E
:101D000090E09C01215030408885882F90E0BC01F4
:101D1000269FC001279F900D369F900D1124840FA0
:101D2000951FED81FE8197838683ED81FE818F81F2
:101D3000838FED81FE818885848FED81FE818FEF19
:101D4000858FED81FE818FEF868F8D819E81089634
:101D50000E940D0A8D819E8141960E940D0A8D81FF
:101D60009E819A83898304C08D819E810E94E709A8
:101D700089819A8128960FB6F894DEBF0FBECDBF39
:101D8000CF91DF910895DF93CF93CDB7DEB72C9736
:101D90000FB6F894DEBF0FBECDBF9E838D837887CC
:101DA0006F835A8749872B8719820FB6F8940F9251
:101DB000ED81FE81928DED81FE81838D9817D8F49F
:101DC0008D819E812F813885B9014B850E94FE103F
:101DD000ED81FE818189882349F08D819E81419624
:101DE0000E941317813011F40E94070D0F900FBE4F
:101DF00081E08C875CC089859A85009721F40F90DB
:101E00000FBE1C8654C08981882331F4CE0102960E
:101E10000E947B1781E089830F900FBE0E94D71428
:101E20000FB6F8940F92ED81FE81858D8F3F19F4E6
:101E3000ED81FE81158EED81FE81868D8F3F19F437
:101E4000ED81FE81168E0F900FBECE0102969E018F
:101E5000275F3F4FB9010E949417882309F58D81B0
:101E60009E810E9462128823A1F08D819E81089636
:101E700029853A85B9010E94DD168D819E810E94D7
:101E8000DB110E94E314882309F08FCF0E94070D15
:101E90008CCF8D819E810E94DB110E94E31485CF3F
:101EA0008D819E810E94DB110E94E3141C868C852B
:101EB0002C960FB6F894DEBF0FBECDBFCF91DF9149
:101EC0000895DF93CF93CDB7DEB729970FB6F89477
:101ED000DEBF0FBECDBF9C838B837E836D8358870F
:101EE0004F8329871982EB81FC81928DEB81FC81E4
:101EF000838D981740F58B819C812D813E81B9019E
:101F000049850E94FE10EB81FC81868D8F3F89F40C
:101F1000EB81FC818189882399F08B819C8141969A
:101F20000E941317882361F0EF81F88581E0808398
:101F300007C0EB81FC81868D8F5FEB81FC81868FF2
:101F400081E08A8301C01A828A8129960FB6F894AB
:101F5000DEBF0FBECDBFCF91DF910895DF93CF934A
:101F6000CDB7DEB72E970FB6F894DEBF0FBECDBF4C
:101F700098878F837A8769875C874B872D871B8239
:101F80000FB6F8940F92EF81F885828D882309F4BB
:101F90003FC0EF81F885868197819A8389838F81FD
:101FA000988529853A85B9010E9493118D858823EA
:101FB000B1F4EF81F885828D8150EF81F885828FB1
:101FC000EF81F88580858823F1F08F8198850896C8
:101FD0000E9413178130B9F40E94070D14C0EF81DD
:101FE000F88589819A8197838683EF81F885818935
:101FF000882349F08F81988541960E941317882382
:1020000011F00E94070D0F900FBE81E08E875CC01B
:102010008B859C85009721F40F900FBE1E8654C0BF
:102020008B81882331F4CE0104960E947B1781E0D6
:102030008B830F900FBE0E94D7140FB6F8940F92A7
:10204000EF81F885858D8F3F19F4EF81F885158E26
:10205000EF81F885868D8F3F19F4EF81F885168E14
:102060000F900FBECE0104969E01255F3F4FB90130
:102070000E949417882309F58F8198850E942F125A
:102080008823A1F08F81988541962B853C85B901E5
:102090000E94DD168F8198850E94DB110E94E31457
:1020A000882309F06DCF0E94070D6ACF8F81988534
:1020B0000E94DB110E94E31463CF8F8198850E94F8
:1020C000DB110E94E3141E868E852E960FB6F894BF
:1020D000DEBF0FBECDBFCF91DF910895DF93CF93C9
:1020E000CDB7DEB728970FB6F894DEBF0FBECDBFD1
:1020F0009C838B837E836D8358874F831982EB810A
:10210000FC81828D882371F18B819C812D813E81A0
:10211000B9010E949311EB81FC81828D8150EB818A
:10212000FC81828FEB81FC81858D8F3F89F4EB816F
:10213000FC818085882399F08B819C8108960E9480
:102140001317882361F0EF81F88581E0808307C051
:10215000EB81FC81858D8F5FEB81FC81858F81E038
:102160008A8301C01A828A8128960FB6F894DEBF4E
:102170000FBECDBFCF91DF910895DF93CF9300D0F5
:102180000F92CDB7DEB79B838A830FB6F8940F9278
:10219000EA81FB81828D89830F900FBE89810F9028
:1021A0000F900F90CF91DF910895DF93CF9300D0E0
:1021B0000F92CDB7DEB79B838A83EA81FB81828D44
:1021C000898389810F900F900F90CF91DF910895AF
:1021D000DF93CF9300D0CDB7DEB79A838983E981AF
:1021E000FA81808191810E94E70989819A810E9408
:1021F000E7090F900F90CF91DF910895DF93CF9370
:1022000000D000D00F92CDB7DEB79A8389837C834C
:102210006B834D83E981FA81848D882309F474C02E
:102220008D81882399F5E981FA8164817581E9813D
:10223000FA81848D482F50E02B813C81CB01B9017C
:102240000E943530E981FA8124813581E981FA8162
:10225000848D882F90E0820F931FE981FA81958306
:102260008483E981FA8124813581E981FA8182813F
:1022700093812817390708F447C0E981FA818081E2
:102280009181E981FA81958384833EC0E981FA8155
:1022900066817781E981FA81848D482F50E02B8116
:1022A0003C81CB01B9010E943530E981FA81268158
:1022B0003781E981FA81848D882F90E0909581950E
:1022C0009F4F820F931FE981FA8197838683E9816B
:1022D000FA8126813781E981FA81808191812817ED
:1022E000390790F4E981FA8122813381E981FA8109
:1022F000848D882F90E0909581959F4F820F931F3A
:10230000E981FA8197838683E981FA81828D8F5FE3
:10231000E981FA81828F0F900F900F900F900F90AC
:10232000CF91DF910895DF93CF9300D000D0CDB748
:10233000DEB79A8389837C836B83E981FA8180810C
:102340009181009789F1E981FA8126813781E981BC
:10235000FA81848D882F90E0820F931FE981FA81A2
:1023600097838683E981FA8126813781E981FA8121
:10237000828193812817390740F0E981FA818081B1
:102380009181E981FA8197838683E981FA81468187
:102390005781E981FA81848D282F30E08B819C81DF
:1023A000BA01A9010E9435300F900F900F900F9045
:1023B000CF91DF910895DF93CF9300D0CDB7DEB7F3
:1023C0009A8389830FB6F8940F9215C0E981FA8138
:1023D00081898823A9F089819A8141960E941317E7
:1023E000882311F00E94F117E981FA81868D8150CE
:1023F000E981FA81868FE981FA81868D181634F396
:10240000E981FA818FEF868F0F900FBE0FB6F89497
:102410000F9215C0E981FA8180858823A9F089810E
:102420009A8108960E941317882311F00E94F117D1
:10243000E981FA81858D8150E981FA81858FE98171
:10244000FA81858D181634F3E981FA818FEF858F33
:102450000F900FBE0F900F90CF91DF910895DF93F3
:10246000CF9300D00F92CDB7DEB79B838A830FB690
:10247000F8940F92EA81FB81828D1982882311F4EE
:1024800081E089830F900FBE89810F900F900F908C
:10249000CF91DF910895DF93CF9300D00F92CDB706
:1024A000DEB79B838A83EA81FB81828D1982882330
:1024B00011F481E0898389810F900F900F90CF9163
:1024C000DF910895DF93CF9300D00F92CDB7DEB7A1
:1024D0009B838A830FB6F8940F92EA81FB81928DD9
:1024E000EA81FB81838D1982981711F481E0898339
:1024F0000F900FBE89810F900F900F90CF91DF91B9
:102500000895DF93CF9300D00F92CDB7DEB79B83B2
:102510008A83EA81FB81928DEA81FB81838D198216
:10252000981711F481E0898389810F900F900F90A3
:10253000CF91DF910895AF92BF92CF92DF92EF9249
:10254000FF920F931F93DF93CF93CDB7DEB76497BE
:102550000FB6F894DEBF0FBECDBF9F838E83798701
:1025600068875B874A873D872C870E87F88AEF86C6
:10257000DA8AC98ABC8AAB8A8A859B8529893A8985
:10258000B9010E9420199C838B838B819C810097C9
:1025900009F499C0EB81FC812789308D8A859B8560
:1025A0000197820F931F9A8389838B819C81288551
:1025B0003985EB89FC89AA85BB85B9014E859F01C8
:1025C0008D010E94051889819A812E813F814C8559
:1025D0005D85B9010E94480BEB81FC81918380836A
:1025E0008F859889009731F0EF85F8898B819C81E0
:1025F000918380830FB6F8940F928091CD068F5F00
:102600008093CD068091CA069091CB06009769F41D
:102610008B819C819093CB068093CA068091CD06D6
:102620008130A9F40E945C1812C08091D2068823E0
:1026300071F4E091CA06F091CB0696898E858917D0
:1026400030F08B819C819093CB068093CA06EB81FE
:10265000FC8196898091D006891728F4EB81FC8152
:1026600086898093D0068091D7068F5F8093D706A6
:10267000EB81FC8196898091D106891728F4EB8142
:10268000FC8186898093D106EB81FC818689282F85
:1026900030E0C901880F991F880F991F880F991F73
:1026A000820F931FAC014852594F8B819C819C0132
:1026B0002E5F3F4FCA01B9010E94470A81E08D8316
:1026C0000F900FBE02C08FEF8D838D81813071F42A
:1026D0008091D206882351F0E091CA06F091CB0692
:1026E00096898E85981710F40E94070D8D81649647
:1026F0000FB6F894DEBF0FBECDBFCF91DF911F9113
:102700000F91FF90EF90DF90CF90BF90AF90089522
:10271000DF93CF9300D000D000D0CDB7DEB79C833D
:102720008B830FB6F8940F922091CA063091CB0696
:102730008B819C818217930711F41C821B828B81F1
:102740009C81009739F48091CA069091CB069E83B4
:102750008D8304C08B819C819E838D838D819E811E
:102760009A83898389819A8102960E94FF0AE9816E
:10277000FA8184899589009729F089819A810C963C
:102780000E94FF0A89819A819C012E5F3F4F84E25B
:1027900097E0B9010E94470A8091CC068F5F809331
:1027A000CC068091D7068F5F8093D7060F900FBE1F
:1027B0008091D206882331F08B819C81009711F49F
:1027C0000E94070D26960FB6F894DEBF0FBECDBF50
:1027D000CF91DF910895DF93CF93CDB7DEB72897E0
:1027E0000FB6F894DEBF0FBECDBF9E838D83788772
:1027F0006F8319820E94D714ED81FE81208131817F
:102800008F819885820F931F9C838B83ED81FE813E
:10281000208131818091CE069091CF068217930757
:10282000A8F4ED81FE81208131818B819C8182170A
:10283000930700F52091CE063091CF068B819C81C5
:1028400028173907B8F481E0898314C0ED81FE812F
:10285000208131818B819C818217930748F02091E0
:10286000CE063091CF068B819C812817390710F452
:1028700081E08983ED81FE818B819C8191838083BE
:102880008981882359F08091CA069091CB060296DF
:102890000E94FF0A8B819C810E94D7180E94E3143A
:1028A0008A838A81882311F40E94070D28960FB627
:1028B000F894DEBF0FBECDBFCF91DF910895DF93B7
:1028C000CF9300D000D00F92CDB7DEB79D838C831D
:1028D00019828C819D810097D1F00E94D71420919C
:1028E000CE063091CF068C819D81820F931F9B83F2
:1028F0008A838091CA069091CB0602960E94FF0AB5
:102900008A819B810E94D7180E94E3148983898160
:10291000882311F40E94070D0F900F900F900F90D5
:102920000F90CF91DF910895AF92BF92CF92DF9237
:10293000EF92FF920F93DF93CF930F92CDB7DEB755
:1029400020E630E08BEF97E1B90148EC50E020E061
:1029500030E000E0EE24FF24CC24DD24AA24BB24B4
:102960000E949B1289838981813051F4F89481E01F
:102970008093D2061092CF061092CE060E94CB0C06
:102980000F90CF91DF910F91FF90EF90DF90CF905C
:10299000BF90AF900895DF93CF93CDB7DEB7F89493
:1029A0001092D2060E94000DCF91DF910895DF931F
:1029B000CF93CDB7DEB78091D3068F5F8093D306D8
:1029C000CF91DF910895DF93CF9300D000D0CDB7A2
:1029D000DEB71A820FB6F8940F928091D306815019
:1029E0008093D3068091D306882309F06CC0809130
:1029F000CD06882309F467C0198241C0E091200701
:102A0000F0912107868197819C838B838B819C81A8
:102A10000C960E94FF0A8B819C8102960E94FF0AFD
:102A2000EB81FC8196898091D106891728F4EB818E
:102A3000FC8186898093D106EB81FC818689282FD1
:102A400030E0C901880F991F880F991F880F991FBF
:102A5000820F931F8852994F2B813C812E5F3F4FED
:102A6000B9010E94470AEB81FC819689E091CA0670
:102A7000F091CB068689981710F081E089838091C8
:102A80001B07882309F0BACF8091D406882371F000
:102A900007C00E94A2158091D40681508093D4066D
:102AA0008091D4068823A9F781E0898389818130C8
:102AB00021F08091D506813031F481E08A83109233
:102AC000D5060E94070D0F900FBE8A810F900F90C0
:102AD0000F900F90CF91DF910895DF93CF9300D0A7
:102AE000CDB7DEB70FB6F8940F928091CE069091D5
:102AF000CF069A8389830F900FBE89819A810F90A8
:102B00000F90CF91DF910895DF93CF9300D00F9274
:102B1000CDB7DEB719828091CE069091CF069B8308
:102B20008A838A819B810F900F900F90CF91DF91C4
:102B30000895DF93CF93CDB7DEB78091CD06CF91C7
:102B4000DF910895DF93CF9300D000D000D0CDB7B0
:102B5000DEB78091D306882309F0BBC08091CE06F2
:102B60009091CF0601969093CF068093CE068091E8
:102B7000CE069091CF060097D1F5809117079091DE
:102B800018079C838B838091190790911A07909363
:102B90001807809317078B819C8190931A07809365
:102BA00019078091D6068F5F8093D606E0911707AC
:102BB000F09118078081882339F48FEF9FEF90936D
:102BC0001C0280931B0213C0E0911707F0911807B5
:102BD0000580F681E02D868197819E838D83ED812E
:102BE000FE818281938190931C0280931B0220912D
:102BF000CE063091CF0680911B0290911C022817BF
:102C0000390708F46BC0E0911707F091180780812D
:102C1000882339F48FEF9FEF90931C0280931B025F
:102C20005DC0E0911707F09118070580F681E02D4F
:102C3000868197819E838D83ED81FE818281938140
:102C40009A8389832091CE063091CF0689819A811B
:102C50002817390738F489819A8190931C02809350
:102C60001B023CC08D819E8102960E94FF0AED816D
:102C7000FE8184899589009729F08D819E810C962B
:102C80000E94FF0AED81FE8196898091D106891705
:102C900028F4ED81FE8186898093D106ED81FE8145
:102CA0008689282F30E0C901880F991F880F991F46
:102CB000880F991F820F931FAC014852594F8D8185
:102CC0009E819C012E5F3F4FCA01B9010E94470AB5
:102CD0009ACF8091D4068F5F8093D40626960FB644
:102CE000F894DEBF0FBECDBFCF91DF910895DF9383
:102CF000CF9300D0CDB7DEB78091D306882349F0BB
:102D000081E08093D50654C08091D1068150809394
:102D1000D1068091D106282F30E0C901880F991F74
:102D2000880F991F880F991F820F931FFC01E8528B
:102D3000F94F8081882341F38091D106282F30E01C
:102D4000C901880F991F880F991F880F991F820F3B
:102D5000931F8852994F9A838983E981FA81018070
:102D6000F281E02D82819381E981FA8192838183CE
:102D7000E981FA812181328189819A81039628171C
:102D8000390759F4E981FA810180F281E02D8281CD
:102D90009381E981FA8192838183E981FA810180BB
:102DA000F281E02D868197819093CB068093CA06AD
:102DB0000F900F90CF91DF910895DF93CF9300D0C4
:102DC00000D000D0CDB7DEB79C838B837E836D832C
:102DD0004B815C818091CA069091CB069C01245F57
:102DE0003F4FCA01B9010E94930A8091CA0690918F
:102DF000CB0602960E94FF0A2091CE063091CF06A4
:102E00008D819E81820F931F9A83898389819A8104
:102E10000E94D71826960FB6F894DEBF0FBECDBF1E
:102E2000CF91DF910895DF93CF9300D000D00F9220
:102E3000CDB7DEB79D838C83EC81FD810580F68163
:102E4000E02D868197819B838A838A819B810C9662
:102E50000E94FF0A8091D306882361F58A819B81B5
:102E600002960E94FF0AEA81FB8196898091D10631
:102E7000891728F4EA81FB8186898093D106EA814B
:102E8000FB818689282F30E0C901880F991F880FA0
:102E9000991F880F991F820F931FAC014852594FF9
:102EA0008A819B819C012E5F3F4FCA01B9010E941C
:102EB000470A0AC08A819B819C01245F3F4F8BE1B6
:102EC00097E0B9010E94470AEA81FB819689E09167
:102ED000CA06F091CB068689981718F081E089839D
:102EE00001C0198289810F900F900F900F900F9061
:102EF000CF91DF910895DF93CF9300D0CDB7DEB7A8
:102F00009A8389838091D606E981FA8180838091B2
:102F1000CE069091CF06E981FA81928381830F904A
:102F20000F90CF91DF910895DF93CF9300D000D021
:102F30000F92CDB7DEB79B838A837D836C830FB6F8
:102F4000F8940F92EA81FB8190818091D6069817C0
:102F500071F0EA81FB81218132818091CE069091CE
:102F6000CF068217930718F081E089832FC0209144
:102F7000CE063091CF06EA81FB8181819281281BA8
:102F8000390BEC81FD818081918128173907E0F4AC
:102F9000EC81FD8140815181EA81FB812181328177
:102FA0008091CE069091CF06B901681B790BCB01B9
:102FB000840F951FEC81FD81918380838A819B81A1
:102FC0000E947B17198202C081E089830F900FBE97
:102FD00089810F900F900F900F900F90CF91DF91FC
:102FE0000895DF93CF93CDB7DEB781E08093D50608
:102FF000CF91DF910895DF93CF9300D0CDB7DEB7A7
:103000009A8389830E949918FDCF0F931F93DF93B2
:10301000CF93CDB7DEB729970FB6F894DEBF0FBEBA
:10302000CDBF9A8389837C836B834D833F832E83BB
:103030001987088789819A8149962B813C81B9013A
:1030400048E050E00E944E30E981FA8110A28D8163
:10305000853010F084E08D83E981FA818D81868B43
:1030600089819A8102960E94370A89819A810C96F9
:103070000E94370AE981FA8189819A819187808744
:103080008D81282F30E085E090E0821B930BE98151
:10309000FA8195878487E981FA8189819A81938B66
:1030A000828B29960FB6F894DEBF0FBECDBFCF91AD
:1030B000DF911F910F910895DF93CF930F92CDB7BA
:1030C000DEB7198213C08981282F30E0C901880F2B
:1030D000991F880F991F880F991F820F931F88527D
:1030E000994F0E940D0A89818F5F8983898185307C
:1030F00050F385E097E00E940D0A8EE097E00E9471
:103100000D0A8BE197E00E940D0A84E297E00E948D
:103110000D0A85E097E090931807809317078EE0DB
:1031200097E090931A07809319070F90CF91DF9142
:103130000895DF93CF9300D00F92CDB7DEB7809183
:10314000CC06882371F10E94D714809124071B823A
:10315000882311F481E08B830E94E3148B81882300
:1031600001F50FB6F8940F92E0912907F0912A0724
:10317000868197819A83898389819A8102960E94A8
:10318000FF0A8091CD0681508093CD068091CC06B8
:1031900081508093CC060F900FBE89819A810E9446
:1031A00070190F900F900F90CF91DF910895DF93DA
:1031B000CF9300D0CDB7DEB79A838983E091CA065A
:1031C000F091CB0689819A81938382832091CE06E8
:1031D0003091CF0689819A818217930770F480918C
:1031E000190790911A072091CA063091CB062E5FDD
:1031F0003F4FB9010E94930A1EC04091170750919A
:1032000018078091CA069091CB069C012E5F3F4F14
:10321000CA01B9010E94930A20911B0230911C023D
:1032200089819A818217930730F489819A819093DA
:103230001C0280931B020F900F90CF91DF91089595
:10324000DF93CF93CDB7DEB728970FB6F894DEBFE4
:103250000FBECDBF9C838B837E836D8381E290E024
:103260000E94A1099A83898389819A81009769F1D3
:103270008D819E81009739F48B819C810E94A109E8
:1032800098878F8304C08D819E8198878F83E98181
:10329000FA818F819885908F878BE981FA81878960
:1032A000908D009739F489819A810E94E7091A82EA
:1032B00019820BC0E981FA818789908D2B813C812D
:1032C00065EA70E0A9010E943E3089819A812896C2
:1032D0000FB6F894DEBF0FBECDBFCF91DF9108953A
:1032E000DF93CF9300D0CDB7DEB79A838983E9818E
:1032F000FA818789908D0E94E70989819A810E94CD
:10330000E7090F900F90CF91DF910895DF93CF934E
:103310000F92CDB7DEB7AAE2B0E0EAE2F0E080813A
:103320008B7F8C93198289818260898389818460F3
:103330008983898180688983E0E4F0E089818083E2
:10334000E9E2F0E083E38083AAE2B0E0EAE2F0E0C1
:10335000808188608C93AAE2B0E0EAE2F0E08081AC
:1033600080618C930F90CF91DF910895DF93CF937D
:103370000F92CDB7DEB7EBE2F0E08081ECE2F0E057
:1033800080810F90CF91DF910895DF93CF9300D08C
:10339000CDB7DEB78983EBE2F0E08081ECE2F0E0CC
:1033A000898180830F900F90CF91DF910895DF93F3
:1033B000CF93CDB7DEB7ABE2B0E0EBE2F0E08081D7
:1033C00080688C93CF91DF910895DF93CF9300D0E5
:1033D00000D00F92CDB7DEB79D838C831A8219C0BF
:1033E0000E94B6198B838B81813380F08B818B3760
:1033F00068F48B810E946C218A81282F30E08C81B7
:103400009D81FC01E20FF31F8B8180838A818F5F96
:103410008A838A81853020F38B818A3299F41982DC
:103420000EC08981282F30E08C819D81FC01E20F44
:10343000F31F80810E946C2189818F5F898389813C
:10344000843078F30F900F900F900F900F90CF91E2
:10345000DF910895DF93CF9300D00F92CDB7DEB701
:103460009B838A8319820EC08981282F30E08A814C
:103470009B81FC01E20FF31F80810E94C5198981A5
:103480008F5F89838981282F30E08A819B81FC01AD
:10349000E20FF31F8081882339F70F900F900F9070
:1034A000CF91DF910895DF93CF93CDB7DEB7AAE236
:1034B000B0E0EAE2F0E080818F7E8C93CF91DF91E3
:1034C0000895DF93CF93CDB7DEB7AAE2B0E0EAE28A
:1034D000F0E0808180618C93CF91DF910895DF933C
:1034E000CF93CDB7DEB7A3E5B0E0E3E5F0E08081B0
:1034F00080648C93A3E5B0E0E3E5F0E08081886030
:103500008C93A3E5B0E0E3E5F0E080818F7E8C93BF
:10351000A3E5B0E0E3E5F0E0808180628C93A3E571
:10352000B0E0E3E5F0E080818E7F8C93A3E5B0E02E
:10353000E3E5F0E0808182608C93A3E5B0E0E3E511
:10354000F0E080818B7F8C93CF91DF910895DF93A2
:10355000CF93CDB7DEB7AFE4B0E0EFE4F0E0808129
:103560008E7F8C93AFE4B0E0EFE4F0E08081826086
:103570008C93AEE4B0E0EEE4F0E0808188608C9360
:10358000AEE4B0E0EEE4F0E0808180618C93AFE4E3
:10359000B0E0EFE4F0E080818F7B8C93AFE4B0E0AB
:1035A000EFE4F0E0808180688C93E6E4F0E080E274
:1035B0009EE491838083AEE4B0E0EEE4F0E08081AD
:1035C0008E7F8C93AEE4B0E0EEE4F0E08081826028
:1035D0008C93AEE4B0E0EEE4F0E080818B7F8C93DE
:1035E000CF91DF910895DF93CF93CDB7DEB7A5E4F8
:1035F000B0E0E5E4F0E0808180648C93A5E4B0E085
:10360000E5E4F0E0808188608C93A5E4B0E0E5E437
:10361000F0E080818F7E8C93A5E4B0E0E5E4F0E0FB
:10362000808180628C93A5E4B0E0E5E4F0E08081E5
:103630008E7F8C93A5E4B0E0E5E4F0E080818260C9
:103640008C93A5E4B0E0E5E4F0E080818B7F8C937F
:10365000CF91DF910895DF93CF930F92CDB7DEB76F
:103660008983E2E5F0E0898180830F90CF91DF913B
:103670000895DF93CF930F92CDB7DEB78983ECE542
:10368000F0E0898180830F90CF91DF910895DF93DF
:10369000CF930F92CDB7DEB78983E4E4F0E0898160
:1036A00080830F90CF91DF910895DF93CF930F9296
:1036B000CDB7DEB78983E3E4F0E0898180830F90A2
:1036C000CF91DF910895DF93CF9300D0CDB7DEB7D0
:1036D0009A838983ECE4F0E089819A8191838083E5
:1036E0000F900F90CF91DF910895DF93CF9300D08B
:1036F000CDB7DEB79A838983EAE4F0E089819A81C5
:10370000918380830F900F90CF91DF910895DF9385
:10371000CF9300D0CDB7DEB79A838983E8E4F0E099
:1037200089819A81918380830F900F90CF91DF914F
:103730000895DF93CF93CDB7DEB7ADE2B0E0EDE211
:10374000F0E0808181608C93ADE2B0E0EDE2F0E0EA
:1037500080818D7F8C93AEE2B0E0EEE2F0E080817C
:1037600081608C93ADE2B0E0EDE2F0E080818061B9
:103770008C93ADE2B0E0EDE2F0E0808180648C9368
:10378000CF91DF910895DF93CF93CDB7DEB7ADE250
:10379000B0E0EDE2F0E080818F7E8C93ADE2B0E0AE
:1037A000EDE2F0E0808180648C93CF91DF91089509
:1037B000DF93CF9300D0CDB7DEB78983EFE2F0E09F
:1037C00089818083EEE2F0E08081EFE2F0E08081A9
:1037D0000F900F90CF91DF910895DF93CF93CDB7E6
:1037E000DEB7AFE5B0E0EFE5F0E0808180688C9374
:1037F000CF91DF910895DF93CF93CDB7DEB7AFE5DB
:10380000B0E0EFE5F0E080818F778C93CF91DF918E
:103810000895DF93CF93CDB7DEB7A5E5B0E0E5E53A
:10382000F0E080818E7F8C93A5E5B0E0E5E5F0E0E7
:10383000808182608C93ABE5B0E0EBE5F0E08081C5
:1038400080648C93CF91DF910895DF93CF93CDB7B0
:10385000DEB7A5E5B0E0E5E5F0E080818B7F8C93F5
:10386000A5E5B0E0E5E5F0E0808188608C93ABE50C
:10387000B0E0EBE5F0E0808180688C93CF91DF9140
:103880000895DF93CF93CDB7DEB7A4E5B0E0E4E5CC
:10389000F0E080818F7B8C93ABE5B0E0EBE5F0E06E
:1038A000808180628C93CF91DF910895DF93CF93D5
:1038B000CDB7DEB727970FB6F894DEBF0FBECDBFEA
:1038C00089836A834B838B81813009F06FC0898142
:1038D000282F30E03F832E838E819F818130910598
:1038E00049F12E813F81223031052CF48E819F8158
:1038F000009761F0D2C02E813F812230310571F1F5
:103900008E819F8183309105E9F1C7C0ABE3B0E0C0
:10391000EBE3F0E08081482F8A81282F30E081E0BE
:1039200090E0022E02C0880F991F0A94E2F7842BC0
:103930008C93B3C0A8E3B0E0E8E3F0E08081482FC7
:103940008A81282F30E081E090E0022E02C0880FAB
:10395000991F0A94E2F7842B8C939FC0A5E3B0E0F3
:10396000E5E3F0E08081482F8A81282F30E081E074
:1039700090E0022E02C0880F991F0A94E2F7842B70
:103980008C938BC0A2E3B0E0E2E3F0E08081482FAB
:103990008A81282F30E081E090E0022E02C0880F5B
:1039A000991F0A94E2F7842B8C9377C08B8188232C
:1039B00009F073C08981282F30E03D832C838C81EE
:1039C0009D818130910559F12C813D812230310555
:1039D0002CF48C819D81009769F05FC02C813D8122
:1039E0002230310589F18C819D818330910509F464
:1039F00040C053C0ABE3B0E0EBE3F0E08081482F80
:103A00008A81282F30E081E090E0022E02C0880FEA
:103A1000991F0A94E2F7809584238C933EC0A8E313
:103A2000B0E0E8E3F0E08081482F8A81282F30E081
:103A300081E090E0022E02C0880F991F0A94E2F7FD
:103A4000809584238C9329C0A5E3B0E0E5E3F0E002
:103A50008081482F8A81282F30E081E090E0022E7B
:103A600002C0880F991F0A94E2F7809584238C93F3
:103A700014C0A2E3B0E0E2E3F0E08081482F8A8145
:103A8000282F30E081E090E0022E02C0880F991FBD
:103A90000A94E2F7809584238C9327960FB6F894C6
:103AA000DEBF0FBECDBFCF91DF910895DF93CF93DF
:103AB000CDB7DEB727970FB6F894DEBF0FBECDBFE8
:103AC00089836A834B838B81813009F06FC0898140
:103AD000282F30E03F832E838E819F818130910596
:103AE00049F12E813F81223031052CF48E819F8156
:103AF000009761F0D2C02E813F812230310571F1F3
:103B00008E819F8183309105E9F1C7C0AAE3B0E0BF
:103B1000EAE3F0E08081482F8A81282F30E081E0BD
:103B200090E0022E02C0880F991F0A94E2F7842BBE
:103B30008C93B3C0A7E3B0E0E7E3F0E08081482FC7
:103B40008A81282F30E081E090E0022E02C0880FA9
:103B5000991F0A94E2F7842B8C939FC0A4E3B0E0F2
:103B6000E4E3F0E08081482F8A81282F30E081E073
:103B700090E0022E02C0880F991F0A94E2F7842B6E
:103B80008C938BC0A1E3B0E0E1E3F0E08081482FAB
:103B90008A81282F30E081E090E0022E02C0880F59
:103BA000991F0A94E2F7842B8C9377C08B8188232A
:103BB00009F073C08981282F30E03D832C838C81EC
:103BC0009D818130910559F12C813D812230310553
:103BD0002CF48C819D81009769F05FC02C813D8120
:103BE0002230310589F18C819D818330910509F462
:103BF00040C053C0AAE3B0E0EAE3F0E08081482F80
:103C00008A81282F30E081E090E0022E02C0880FE8
:103C1000991F0A94E2F7809584238C933EC0A7E312
:103C2000B0E0E7E3F0E08081482F8A81282F30E080
:103C300081E090E0022E02C0880F991F0A94E2F7FB
:103C4000809584238C9329C0A4E3B0E0E4E3F0E002
:103C50008081482F8A81282F30E081E090E0022E79
:103C600002C0880F991F0A94E2F7809584238C93F1
:103C700014C0A1E3B0E0E1E3F0E08081482F8A8145
:103C8000282F30E081E090E0022E02C0880F991FBB
:103C90000A94E2F7809584238C9327960FB6F894C4
:103CA000DEBF0FBECDBFCF91DF910895DF93CF93DD
:103CB00000D000D0CDB7DEB789836A838981282FF1
:103CC00030E03C832B838B819C8181309105D1F046
:103CD0002B813C81223031052CF48B819C81009713
:103CE00061F01EC02B813C812230310581F08B8137
:103CF0009C818330910581F013C0EBE3F0E08A8171
:103D000080830EC0E8E3F0E08A81808309C0E5E3A8
:103D1000F0E08A81808304C0E2E3F0E08A8180835E
:103D20000F900F900F900F90CF91DF910895DF9338
:103D3000CF9300D000D0CDB7DEB789836A83898165
:103D4000282F30E03C832B838B819C81813091052F
:103D5000D1F02B813C81223031052CF48B819C8168
:103D6000009761F01EC02B813C812230310581F02B
:103D70008B819C818330910581F013C0EAE3F0E0F0
:103D80008A8180830EC0E7E3F0E08A81808309C0E6
:103D9000E4E3F0E08A81808304C0E1E3F0E08A811B
:103DA00080830F900F900F900F90CF91DF91089527
:103DB000DF93CF9300D000D00F92CDB7DEB78A83C8
:103DC0006B8319828A81282F30E03D832C834C81BC
:103DD0005D814130510541F18C819D818230910599
:103DE00034F42C813D812115310561F052C04C81A4
:103DF0005D814230510551F18C819D818330910567
:103E0000B9F147C0E9E3F0E08081282F30E08B81F1
:103E1000882F90E0A90102C0559547958A95E2F751
:103E2000CA018170898335C0E6E3F0E08081282FE4
:103E300030E08B81882F90E0A90102C0559547950D
:103E40008A95E2F7CA018170898323C0E3E3F0E039
:103E50008081282F30E08B81882F90E0A90102C05B
:103E6000559547958A95E2F7CA018170898311C0FB
:103E7000E0E3F0E08081282F30E08B81882F90E014
:103E8000A90102C0559547958A95E2F7CA0181704C
:103E9000898389810F900F900F900F900F90CF9191
:103EA000DF910895DF93CF93CDB7DEB7A7E2B0E0FF
:103EB000E7E2F0E0808180648C93A7E2B0E0E7E283
:103EC000F0E080818F778C93A7E2B0E0E7E2F0E04A
:103ED000808180628C93A6E2B0E0E6E2F0E080812F
:103EE00081608C93A6E2B0E0E6E2F0E0808182603F
:103EF0008C93A6E2B0E0E6E2F0E0808184608C93EF
:103F0000A6E2B0E0E6E2F0E0808180688C93CF9199
:103F1000DF910895DF93CF9300D000D000D0CDB7CC
:103F2000DEB78D8380EA96E89C838B831A821982A0
:103F3000A7E2B0E0E7E2F0E08081807E8C93A7E228
:103F4000B0E0E7E2F0E090818D81892B8C93A6E2CE
:103F5000B0E0E6E2F0E0808180648C9305C0898166
:103F60009A8101969A838983E6E2F0E08081298133
:103F70003A818B819C812817390789F7A6E2B0E046
:103F8000E6E2F0E0808180618C93E4E2F0E0808101
:103F9000918126960FB6F894DEBF0FBECDBFCF91AC
:103FA000DF9108950F931F93DF93CF93CDB7DEB7C3
:103FB00027970FB6F894DEBF0FBECDBF8A836B8301
:103FC0004C832D831F830E838A816B8140E00E9486
:103FD000561C8A816D8140E00E94561C8A816D8149
:103FE00041E00E94561C198227C08981282F30E0A9
:103FF0008E819F81022E02C0969587950A94E2F7E2
:1040000081709070882331F08A816C8141E00E9438
:10401000561C05C08A816C8140E00E94561C8A8132
:104020006D8140E00E94561C8A816D8141E00E94B2
:10403000561C89818F5F898389818031B0F28A81A2
:104040006B8141E00E94561C27960FB6F894DEBFA4
:104050000FBECDBFCF91DF911F910F910895DF93D8
:10406000CF930F92CDB7DEB7898389810E94391B28
:104070000F90CF91DF910895DF93CF93CDB7DEB747
:104080008FEF0E94391BCF91DF910895DF93CF937B
:1040900000D0CDB7DEB79A83898389819A810E9447
:1040A000751B0F900F90CF91DF910895DF93CF9301
:1040B000CDB7DEB78FEF9FEF0E94751BCF91DF91D9
:1040C0000895DF93CF93CDB7DEB76D970FB6F89411
:1040D000DEBF0FBECDBF8D8F80E060E040E00E946C
:1040E000561C82E06D8D0E94561E80E061E041E02A
:1040F0000E94561C80E090E0A0E0B0E4898F9A8F87
:10410000AB8FBC8F698D7A8D8B8D9C8D20E030E0DC
:104110004AEF54E40E941F02DC01CB018D8B9E8B81
:10412000AF8BB88F6D897E898F89988D20E030E0C4
:1041300040E85FE30E94790388232CF481E090E05B
:104140009C8B8B8B3FC06D897E898F89988D20E0F9
:104150003FEF4FE757E40E94190318164CF5698D9D
:104160007A8D8B8D9C8D20E030E040E251E40E94FE
:104170001F02DC01CB01BC01CD010E944900DC0122
:10418000CB019C8B8B8B0FC088EC90E09A8B898B3A
:1041900089899A890197F1F79A8B898B8B899C89F8
:1041A00001979C8B8B8B8B899C89009769F714C036
:1041B0006D897E898F89988D0E944900DC01CB0131
:1041C0009C8B8B8B8B899C89988B8F878F8598890B
:1041D0000197F1F7988B8F8780E061E040E00E94C3
:1041E000561C80E090E0A0E0B0E48B879C87AD8710
:1041F000BE876B857C858D859E8520E030E04AEF0B
:1042000054E40E941F02DC01CB018F839887A987A9
:10421000BA876F81788589859A8520E030E040E80B
:104220005FE30E94790388232CF481E090E09E8371
:104230008D833FC06F81788589859A8520E03FEF27
:104240004FE757E40E94190318164CF56B857C85DF
:104250008D859E8520E030E040E251E40E941F02FF
:10426000DC01CB01BC01CD010E944900DC01CB0186
:104270009E838D830FC088EC90E09C838B838B8121
:104280009C810197F1F79C838B838D819E8101979F
:104290009E838D838D819E81009769F714C06F8105
:1042A000788589859A850E944900DC01CB019E832F
:1042B0008D838D819E819A83898389819A810197DB
:1042C000F1F79A8389836D960FB6F894DEBF0FBE1F
:1042D000CDBFCF91DF910895DF93CF93CDB7DEB7F8
:1042E0006D970FB6F894DEBF0FBECDBF8D8F80E007
:1042F00060E041E00E94561C82E06D8D0E94561ED7
:1043000080E061E041E00E94561C80E090E0A0E087
:10431000B0E4898F9A8FAB8FBC8F698D7A8D8B8D2E
:104320009C8D20E030E04AEF54E40E941F02DC0143
:10433000CB018D8B9E8BAF8BB88F6D897E898F89DA
:10434000988D20E030E040E85FE30E947903882305
:104350002CF481E090E09C8B8B8B3FC06D897E8933
:104360008F89988D20E03FEF4FE757E40E941903B3
:1043700018164CF5698D7A8D8B8D9C8D20E030E080
:1043800040E251E40E941F02DC01CB01BC01CD01DF
:104390000E944900DC01CB019C8B8B8B0FC088EC09
:1043A00090E09A8B898B89899A890197F1F79A8B8A
:1043B000898B8B899C8901979C8B8B8B8B899C89A2
:1043C000009769F714C06D897E898F89988D0E9446
:1043D0004900DC01CB019C8B8B8B8B899C89988B52
:1043E0008F878F8598890197F1F7988B8F8780E069
:1043F00061E040E00E94561C80E090E0A0E0B0E464
:104400008B879C87AD87BE876B857C858D859E85D8
:1044100020E030E04AEF54E40E941F02DC01CB01AF
:104420008F839887A987BA876F81788589859A85D0
:1044300020E030E040E85FE30E94790388232CF419
:1044400081E090E09E838D833FC06F817885898570
:104450009A8520E03FEF4FE757E40E9419031816B2
:104460004CF56B857C858D859E8520E030E040E2B3
:1044700051E40E941F02DC01CB01BC01CD010E946E
:104480004900DC01CB019E838D830FC088EC90E056
:104490009C838B838B819C810197F1F79C838B8319
:1044A0008D819E8101979E838D838D819E81009752
:1044B00069F714C06F81788589859A850E944900C3
:1044C000DC01CB019E838D838D819E819A838983BC
:1044D00089819A810197F1F79A8389836D960FB646
:1044E000F894DEBF0FBECDBFCF91DF910895DF936B
:1044F000CF93CDB7DEB72E970FB6F894DEBF0FBEC1
:10450000CDBF80E090E0A0E2B2E48B879C87AD87CE
:10451000BE876B857C858D859E8520E030E04AEFE7
:1045200054E40E941F02DC01CB018F839887A98786
:10453000BA876F81788589859A8520E030E040E8E8
:104540005FE30E94790388232CF481E090E09E834E
:104550008D833FC06F81788589859A8520E03FEF04
:104560004FE757E40E94190318164CF56B857C85BC
:104570008D859E8520E030E040E251E40E941F02DC
:10458000DC01CB01BC01CD010E944900DC01CB0163
:104590009E838D830FC088EC90E09C838B838B81FE
:1045A0009C810197F1F79C838B838D819E8101977C
:1045B0009E838D838D819E81009769F714C06F81E2
:1045C000788589859A850E944900DC01CB019E830C
:1045D0008D838D819E819A83898389819A810197B8
:1045E000F1F79A83898388E30E9461208CE00E941E
:1045F000612081E00E9461202E960FB6F894DEBF04
:104600000FBECDBFCF91DF910895DF93CF9300D040
:104610000F92CDB7DEB79B838A8319820EC0898142
:10462000282F30E08A819B81FC01E20FF31F8081FB
:104630000E946C2189818F5F89838981282F30E0D6
:104640008A819B81FC01E20FF31F8081882339F767
:104650000F900F900F90CF91DF910895DF93CF933C
:10466000CDB7DEB72C970FB6F894DEBF0FBECDBF27
:104670009C878B878B859C859E012F5F3F4FB9015F
:104680004AE050E00E945D30CE0101960E94052371
:104690002C960FB6F894DEBF0FBECDBFCF91DF9141
:1046A0000895DF93CF9300D00F92CDB7DEB78A8302
:1046B0006B8319828B81882311F48A8189838B8192
:1046C000813019F48A81805C8983898180580E94B5
:1046D00061200F900F900F90CF91DF910895DF939D
:1046E000CF9300D000D00F92CDB7DEB79C838B83E1
:1046F0006D831A828D81882F90E0880F991F880F13
:10470000991F880F991F8A838A81805C0E9461208B
:1047100019820EC08981282F30E08B819C81FC0199
:10472000E20FF31F80810E946C2189818F5F898352
:104730008981883078F30F900F900F900F900F9031
:10474000CF91DF910895DF93CF9300D000D0CDB704
:10475000DEB78A836B834C8319828A81882F90E02D
:10476000880F991F880F991F880F991F8983898146
:10477000805C0E9461208B816C810E9451238A8120
:104780000E946C210F900F900F900F90CF91DF91AE
:104790000895DF93CF93CDB7DEB781E064E041E0C9
:1047A0000E94561CCF91DF910895DF93CF93CDB730
:1047B000DEB781E064E040E00E94561CCF91DF91BB
:1047C0000895DF93CF93CDB7DEB760970FB6F89417
:1047D000DEBF0FBECDBF988B8F870E94C9238F8508
:1047E0009889CC01A0E0B0E0BC01CD010E945B043F
:1047F000DC01CB018B879C87AD87BE876B857C8571
:104800008D859E8520E030E04AEF54E40E941F022F
:10481000DC01CB018F839887A987BA876F81788560
:1048200089859A8520E030E040E85FE30E947903C3
:1048300088232CF481E090E09E838D833FC06F81BC
:10484000788589859A8520E03FEF4FE757E40E94FD
:10485000190318164CF56B857C858D859E8520E0A7
:1048600030E040E251E40E941F02DC01CB01BC01B8
:10487000CD010E944900DC01CB019E838D830FC0D6
:1048800088EC90E09C838B838B819C810197F1F76E
:104890009C838B838D819E8101979E838D838D81E7
:1048A0009E81009769F714C06F81788589859A8504
:1048B0000E944900DC01CB019E838D838D819E8106
:1048C0009A83898389819A810197F1F79A838983F1
:1048D0000E94D52360960FB6F894DEBF0FBECDBF01
:1048E000CF91DF910895AF92BF92CF92DF92EF9276
:1048F000FF920F931F93DF93CF93CDB7DEB7C05ACC
:10490000D0400FB6F894DEBF0FBECDBFEAE3F0E0B3
:1049100083E08083E7E3F0E08FEF8083E4E3F0E07F
:104920008FEF8083E1E3F0E082EF808383E062E059
:1049300041E00E94561C83E063E041E00E94561C67
:104940000E94ED1B0E94091C0E94251C0E947722D8
:104950000E9486190E94521F0E94A71A0E94F31AF1
:1049600080E090E00E94F42DFE01E056FF4F81E0D0
:1049700080835DC485E690E00E94052380E061E0CD
:104980000E94512380E790E00E940523FE01E95632
:10499000FF4F80E090E8ABE3B5E480839183A2838E
:1049A000B3838E010D561F4FFE01E956FF4F608104
:1049B00071818281938120E030E04AEF54E40E94CB
:1049C0001F02DC01CB01F80180839183A283B383B2
:1049D000FE01ED56FF4F608171818281938120E05D
:1049E00030E040E85FE30E947903882344F4FE014D
:1049F000EF56FF4F81E090E09183808364C0FE0119
:104A0000ED56FF4F608171818281938120E03FEFFD
:104A10004FE757E40E94190318160CF043C0FE013B
:104A2000E956FF4F608171818281938120E030E0FF
:104A300040E251E40E941F02DC01CB018E010F56BF
:104A40001F4FBC01CD010E944900DC01CB01F801E0
:104A5000918380831FC0FE01E157FF4F88EC90E0F7
:104A600091838083FE01E157FF4F808191810197FF
:104A7000F1F7FE01E157FF4F91838083DE01AF56CE
:104A8000BF4FFE01EF56FF4F808191810197119634
:104A90009C938E93FE01EF56FF4F8081918100978A
:104AA000D1F627C08E010F561F4FFE01ED56FF4F66
:104AB00060817181828193810E944900DC01CB0178
:104AC000F80191838083DE01A357BF4FFE01EF56AB
:104AD000FF4F808191818D939C93FE01E357FF4F9F
:104AE000808191810197F1F7FE01E357FF4F918398
:104AF000808381E00E94612089E790E00E94052385
:104B00008AE397E00E94A72DFE01E156FF4F108235
:104B1000E5C0FE01E156FF4F8081882F90E0880FAD
:104B2000991F9C01220F331F220F331F820F931FE7
:104B30009C01205C3D4F8AE397E0B9010E9445301B
:104B4000009709F0C2C081E00E94612083E890E0F4
:104B50000E940523FE01E156FF4F80818093A4024D
:104B6000FE01E757FF4F80E090E8ABE3B5E48083B8
:104B70009183A283B3838E010B571F4FFE01E7572A
:104B8000FF4F608171818281938120E030E04AEFA4
:104B900054E40E941F02DC01CB01F8018083918361
:104BA000A283B383FE01EB57FF4F60817181828145
:104BB000938120E030E040E85FE30E94790388239E
:104BC00044F4FE01ED57FF4F81E090E09183808334
:104BD00064C0FE01EB57FF4F608171818281938138
:104BE00020E03FEF4FE757E40E94190318160CF03E
:104BF00043C0FE01E757FF4F60817181828193813D
:104C000020E030E040E251E40E941F02DC01CB01D1
:104C10008E010D571F4FBC01CD010E944900DC01E0
:104C2000CB01F801918380831FC0FE01EF57FF4F36
:104C300088EC90E091838083FE01EF57FF4F8081E5
:104C400091810197F1F7FE01EF57FF4F9183808328
:104C5000DE01AD57BF4FFE01ED57FF4F80819181BF
:104C6000019711969C938E93FE01ED57FF4F808123
:104C700091810097D1F639C08E010D571F4FFE016B
:104C8000EB57FF4F60817181828193810E944900BF
:104C9000DC01CB01F80191838083DE01A158BF4F75
:104CA000FE01ED57FF4F8081918111969C938E9369
:104CB000FE01E158FF4F808191810197F1F7FE01DC
:104CC000E158FF4F9183808310C0DE01A156BF4F92
:104CD000FE01E156FF4F80818F5F8C93FE01E1560C
:104CE000FF4F80818A3008F414CF8091A4028A306B
:104CF00008F4A4C28091A4028A3008F4D8C0FE014E
:104D0000E056FF4F8081833008F0D1C081E00E94DF
:104D1000612086E890E00E94052380E061E00E9427
:104D20005123FE01E056FF4F8081282F30E083E0C1
:104D300090E0821B930B0E942E2385E990E00E9455
:104D40000523FE01E558FF4F80E090E4ACE9B5E4AF
:104D500080839183A283B3838E0109581F4FFE0184
:104D6000E558FF4F608171818281938120E030E0BE
:104D70004AEF54E40E941F02DC01CB01F80180835A
:104D80009183A283B383FE01E958FF4F6081718153
:104D90008281938120E030E040E85FE30E94790364
:104DA000882344F4FE01EB58FF4F81E090E09183AB
:104DB000808364C0FE01E958FF4F60817181828168
:104DC000938120E03FEF4FE757E40E941903181644
:104DD0000CF043C0FE01E558FF4F60817181828174
:104DE000938120E030E040E251E40E941F02DC01A8
:104DF000CB018E010B581F4FBC01CD010E94490011
:104E0000DC01CB01F801918380831FC0FE01ED58C6
:104E1000FF4F88EC90E091838083FE01ED58FF4FB7
:104E2000808191810197F1F7FE01ED58FF4F918349
:104E30008083DE01AB58BF4FFE01EB58FF4F8081EE
:104E40009181019711969C938E93FE01EB58FF4F31
:104E5000808191810097D1F627C08E010B581F4F9A
:104E6000FE01E958FF4F60817181828193810E9428
:104E70004900DC01CB01F80191838083DE01AF584A
:104E8000BF4FFE01EB58FF4F808191818D939C9322
:104E9000FE01EF58FF4F808191810197F1F7FE01EC
:104EA000EF58FF4F9183808381E00E946120FE01D3
:104EB000E056FF4F8081833009F0B0C18091A40299
:104EC0008A3008F4ABC181E00E94612086E890E05E
:104ED0000E94052380E061E00E94512382EA90E075
:104EE0000E940523FE01E359FF4F80E090E4ACE906
:104EF000B5E480839183A283B3838E0107591F4F4A
:104F0000FE01E359FF4F608171818281938120E02E
:104F100030E04AEF54E40E941F02DC01CB01F801AB
:104F200080839183A283B383FE01E759FF4F6081A1
:104F300071818281938120E030E040E85FE30E944C
:104F40007903882344F4FE01E959FF4F81E090E0A2
:104F50009183808364C0FE01E759FF4F60817181B6
:104F60008281938120E03FEF4FE757E40E941903CD
:104F700018160CF043C0FE01E359FF4F60817181A8
:104F80008281938120E030E040E251E40E941F02E0
:104F9000DC01CB018E0109591F4FBC01CD010E94DC
:104FA0004900DC01CB01F801918380831FC0FE0121
:104FB000EB59FF4F88EC90E091838083FE01EB5921
:104FC000FF4F808191810197F1F7FE01EB59FF4F6F
:104FD00091838083DE01A959BF4FFE01E959FF4F3C
:104FE00080819181019711969C938E93FE01E959DE
:104FF000FF4F808191810097D1F627C08E0109591A
:105000001F4FFE01E759FF4F6081718182819381BB
:105010000E944900DC01CB01F80191838083DE010D
:10502000AD59BF4FFE01E959FF4F808191818D93AA
:105030009C93FE01ED59FF4F808191810197F1F71B
:10504000FE01ED59FF4F9183808381E00E94612032
:10505000FE01E256FF4F1082DAC081E00E9461201B
:1050600081EB90E00E94052380E061E00E945123E3
:10507000FE01E256FF4F8081282F30E08AE090E069
:10508000821B930B0E942E2381EC90E00E9405234B
:10509000FE01E15AFF4F80E090E0AAE7B4E480838C
:1050A0009183A283B3838E01055A1F4FFE01E15AFB
:1050B000FF4F608171818281938120E030E04AEF6F
:1050C00054E40E941F02DC01CB01F801808391832C
:1050D000A283B383FE01E55AFF4F60817181828113
:1050E000938120E030E040E85FE30E947903882369
:1050F00044F4FE01E75AFF4F81E090E09183808302
:1051000064C0FE01E55AFF4F608171818281938105
:1051100020E03FEF4FE757E40E94190318160CF008
:1051200043C0FE01E15AFF4F60817181828193810A
:1051300020E030E040E251E40E941F02DC01CB019C
:105140008E01075A1F4FBC01CD010E944900DC01AE
:10515000CB01F801918380831FC0FE01E95AFF4F04
:1051600088EC90E091838083FE01E95AFF4F8081B3
:1051700091810197F1F7FE01E95AFF4F91838083F6
:10518000DE01A75ABF4FFE01E75AFF4F8081918190
:10519000019711969C938E93FE01E75AFF4F8081F1
:1051A00091810097D1F627C08E01075A1F4FFE014B
:1051B000E55AFF4F60817181828193810E9449008D
:1051C000DC01CB01F80191838083DE01AB5ABF4F34
:1051D000FE01E75AFF4F808191818D939C93FE01E0
:1051E000EB5AFF4F808191810197F1F7FE01EB5A55
:1051F000FF4F9183808381E00E946120DE01A256EF
:10520000BF4FFE01E256FF4F80818F5F8C93FE01FE
:10521000E256FF4F80818A3008F41FCFDE01A0568E
:10522000BF4FFE01E056FF4F80818F5F8C93FE01E0
:10523000E056FF4F8081843008F49CCBFE01EF5A8A
:10524000FF4F80E090E0AAE7B4E480839183A283DB
:10525000B3838E01035B1F4FFE01EF5AFF4F608146
:1052600071818281938120E030E04AEF54E40E9412
:105270001F02DC01CB01F80180839183A283B383F9
:10528000FE01E35BFF4F608171818281938120E0A9
:1052900030E040E85FE30E947903882344F4FE0194
:1052A000E55BFF4F81E090E09183808364C0FE0165
:1052B000E35BFF4F608171818281938120E03FEF4A
:1052C0004FE757E40E94190318160CF043C0FE0183
:1052D000EF5AFF4F608171818281938120E030E03D
:1052E00040E251E40E941F02DC01CB018E01055B0C
:1052F0001F4FBC01CD010E944900DC01CB01F80128
:10530000918380831FC0FE01E75BFF4F88EC90E034
:1053100091838083FE01E75BFF4F8081918101973C
:10532000F1F7FE01E75BFF4F91838083DE01A55B10
:10533000BF4FFE01E55BFF4F808191810197119680
:105340009C938E93FE01E55BFF4F808191810097D6
:10535000D1F627C08E01055B1F4FFE01E35BFF4FB7
:1053600060817181828193810E944900DC01CB01BF
:10537000F80191838083DE01A95BBF4FFE01E55BED
:10538000FF4F808191818D939C93FE01E95BFF4FDC
:10539000808191810197F1F7FE01E95BFF4F9183D5
:1053A000808381E00E946120FE01E356FF4F81E08F
:1053B00080832BC385E690E00E94052380E061E0B6
:1053C0000E9451238AEC90E00E940523FE01ED5BD0
:1053D000FF4F80E090E8ABE3B5E480839183A28344
:1053E000B3838E01015C1F4FFE01ED5BFF4F6081B7
:1053F00071818281938120E030E04AEF54E40E9481
:105400001F02DC01CB01F80180839183A283B38367
:10541000FE01FF96608171818281938120E030E0FE
:1054200040E85FE30E94790388232CF481E090E058
:105430009EAF8DAF46C0FE01FF9660817181828173
:10544000938120E03FEF4FE757E40E9419031816BD
:1054500064F5FE01ED5BFF4F608171818281938174
:1054600020E030E040E251E40E941F02DC01CB0169
:10547000BC01CD010E944900DC01CB019EAF8DAF84
:105480000FC088EC90E09CAF8BAF8BAD9CAD0197CB
:10549000F1F79CAF8BAF8DAD9EAD01979EAF8DAFF9
:1054A0008DAD9EAD009769F716C0FE01FF96608135
:1054B0007181828193810E944900DC01CB019EAF02
:1054C0008DAF8DAD9EAD9AAF89AF89AD9AAD019785
:1054D000F1F79AAF89AF81E00E94612083ED90E0FF
:1054E0000E94052385E397E00E94A72DFE01E45664
:1054F000FF4F1082A4C0FE01E456FF4F8081882F29
:1055000090E0880F991F9C01220F331F220F331F39
:10551000820F931F05969C01205C3D4F85E397E029
:10552000B9010E944530009709F080C081E00E94D7
:10553000612083E890E00E940523FE01E456FF4FBE
:1055400080818093A50280E090E8ABE3B5E48DAB69
:105550009EABAFABB8AF6DA97EA98FA998AD20E087
:1055600030E04AEF54E40E941F02DC01CB0189AB1A
:105570009AABABABBCAB69A97AA98BA99CA920E07B
:1055800030E040E85FE30E94790388232CF481E057
:1055900090E098AB8FA73FC069A97AA98BA99CA975
:1055A00020E03FEF4FE757E40E94190318164CF52F
:1055B0006DA97EA98FA998AD20E030E040E251E4CA
:1055C0000E941F02DC01CB01BC01CD010E944900F9
:1055D000DC01CB0198AB8FA70FC088EC90E09EA7B1
:1055E0008DA78DA59EA50197F1F79EA78DA78FA5E5
:1055F00098A9019798AB8FA78FA598A9009769F7ED
:1056000025C069A97AA98BA99CA90E944900DC013F
:10561000CB0198AB8FA78FA598A99CA78BA78BA52B
:105620009CA50197F1F79CA78BA710C0DE01A4569B
:10563000BF4FFE01E456FF4F80818F5F8C93FE01C8
:10564000E456FF4F80818A3008F455CF8091A5023F
:105650008A3008F4E1C18091A5028A3008F497C02D
:10566000FE01E356FF4F8081833008F090C081E057
:105670000E9461208DED90E00E94052380E061E0B2
:105680000E945123FE01E356FF4F8081282F30E016
:1056900083E090E0821B930B0E942E2385E990E02B
:1056A0000E94052380E090E4ACE9B5E48FA398A7BD
:1056B000A9A7BAA76FA178A589A59AA520E030E08F
:1056C0004AEF54E40E941F02DC01CB018BA39CA390
:1056D000ADA3BEA36BA17CA18DA19EA120E030E073
:1056E00040E85FE30E94790388232CF481E090E096
:1056F0009AA389A33FC06BA17CA18DA19EA120E0AC
:105700003FEF4FE757E40E94190318164CF56FA1BD
:1057100078A589A59AA520E030E040E251E40E94F6
:105720001F02DC01CB01BC01CD010E944900DC015C
:10573000CB019AA389A30FC088EC90E098A38F8F28
:105740008F8D98A10197F1F798A38F8F89A19AA1C6
:1057500001979AA389A389A19AA1009769F714C018
:105760006BA17CA18DA19EA10E944900DC01CB010F
:105770009AA389A389A19AA19E8F8D8F8D8D9E8DCD
:105780000197F1F79E8F8D8F81E00E946120FE01CD
:10579000E356FF4F8081833009F02EC18091A5022E
:1057A0008A3008F429C181E00E9461208DED90E0EB
:1057B0000E94052380E061E00E94512382EA90E08C
:1057C0000E94052380E090E4ACE9B5E4898F9A8FCC
:1057D000AB8FBC8F698D7A8D8B8D9C8D20E030E0F6
:1057E0004AEF54E40E941F02DC01CB018D8B9E8B9B
:1057F000AF8BB88F6D897E898F89988D20E030E0DE
:1058000040E85FE30E94790388232CF481E090E074
:105810009C8B8B8B3FC06D897E898F89988D20E012
:105820003FEF4FE757E40E94190318164CF5698DB6
:105830007A8D8B8D9C8D20E030E040E251E40E9417
:105840001F02DC01CB01BC01CD010E944900DC013B
:10585000CB019C8B8B8B0FC088EC90E09A8B898B53
:1058600089899A890197F1F79A8B898B8B899C8911
:1058700001979C8B8B8B8B899C89009769F714C04F
:105880006D897E898F89988D0E944900DC01CB014A
:105890009C8B8B8B8B899C89988B8F878F85988924
:1058A0000197F1F7988B8F8781E00E946120FE01BC
:1058B000E556FF4F108299C081E00E94612081EB84
:1058C00090E00E94052380E061E00E945123FE01E8
:1058D000E556FF4F8081282F30E08AE090E0821B60
:1058E000930B0E942E2381EC90E00E94052380E020
:1058F00090E0AAE7B4E48B879C87AD87BE876B8571
:105900007C858D859E8520E030E04AEF54E40E943E
:105910001F02DC01CB018F839887A987BA876F812B
:10592000788589859A8520E030E040E85FE30E9431
:10593000790388232CF481E090E09E838D833FC01F
:105940006F81788589859A8520E03FEF4FE757E49E
:105950000E94190318164CF56B857C858D859E85F4
:1059600020E030E040E251E40E941F02DC01CB0164
:10597000BC01CD010E944900DC01CB019E838D83D7
:105980000FC088EC90E09C838B838B819C81019776
:10599000F1F79C838B838D819E8101979E838D83FC
:1059A0008D819E81009769F714C06F817885898504
:1059B0009A850E944900DC01CB019E838D838D81F5
:1059C0009E819A83898389819A810197F1F79A83CD
:1059D000898381E00E946120DE01A556BF4FFE0150
:1059E000E556FF4F80818F5F8C93FE01E556FF4F98
:1059F00080818A3008F460CFDE01A356BF4FFE01DC
:105A0000E356FF4F80818F5F8C93FE01E356FF4F7B
:105A10008081843008F4CECC81E00E94612087EA46
:105A20009FEF0E94F42D89E59EE22DE237E060E0D1
:105A300070E044E650E000E0EE24FF24CC24DD24B6
:105A4000AA24BB240E949B128BE29FE22DE237E046
:105A500060E070E042ED50E000E0EE24FF24CC2452
:105A6000DD24AA24BB240E949B1284E59FE22DE240
:105A700037E060E070E042ED50E000E0EE24FF240B
:105A8000CC24DD24AA24BB240E949B120E949414DF
:105A9000FFCF1F920F920FB60F9211242F933F93B7
:105AA0004F935F936F937F938F939F93AF93BF9326
:105AB000EF93FF93DF93CF93CDB7DEB781E066E03E
:105AC00041E00E94561C0E94C923CF91DF91FF91B3
:105AD000EF91BF91AF919F918F917F916F915F9166
